:020000040800F2
:10000000E87F012071080008790800087B080008D3
:100010007D0800087F080008810800080000000033
:10002000000000000000000000000000830800083D
:1000300085080008000000008708000889080008FB
:100040008B0800088B0800088B0800088B08000844
:100050008B0800088B080008E9150008D91600086D
:10006000ED160008011700081517000819140008FC
:100070003D1400086114000885140008B514000838
:10008000D9140008FD1400088B0800088B0800082C
:10009000000000008B08000800000000291700087D
:1000A0008B080008B52C00088B0800088B08000896
:1000B000C92C0008DD2C0008F12C00088B08000872
:1000C000000000008B080008000000008B080008FA
:1000D0008B080008712F0008BD2F000809300008A8
:1000E000FD1500088B0800088B0800088B08000825
:1000F000552F00088B0800088B0800088B080008A3
:10010000000000008B080008052D00088B0800087F
:1001100059300008A5300008192D0008412F0008AB
:1001200021150008491500087115000899150008E7
:10013000C11500088B080008000000000000000046
:100140008B08000800000000000000008B08000879
:10015000000000000000000000000000F130000876
:10016000000000000000000000000000000000008F
:10017000000000000000000000000000000000007F
:10018000000000000000000049310008953100081F
:10019000DFF80CD000F0BAFC004800478558000892
:1001A000E87F012040EA01039B0703D009E008C96A
:1001B000121F08C0042AFAD203E011F8013B00F82C
:1001C000013B521EF9D27047D2B201E000F8012B78
:1001D000491EFBD270470022F6E710B513460A46C7
:1001E00004461946FFF7F0FF204610BD421C10F8E8
:1001F000011B0029FBD1801A704730B5054600204D
:10020000034600E05B1C934205D2EC5CC85C201AFC
:1002100001D1002CF6D130BDF0B480EA0102D40F38
:100220004200B2EB410F02D20246084611464A0094
:1002300042D0C30DDDB2C1F3C752AD1A202D35DA5D
:10024000C1F3160141F4000204B15242C5F1200687
:1002500002FA06F12A411044B3EBD05F23D0C4B1B7
:10026000012DA0EBC35009DCF0BC4FF0004202EAC4
:10027000C352DBB200F5000000F08DBB400000F17E
:10028000807000EBC350A0F1807040EAD17049004B
:1002900009E0490841EAC071A0EBC35000F5000035
:1002A000400800EBC350F0BC00F06CBB614201227F
:1002B00002EB4101001BF6E7F0BC704781F0004102
:1002C000AAE780F00040A7E780EA010210B502F03B
:1002D0000043400022D04A001FD0010E01EB126102
:1002E000C0F35600C2F3560240F4000042F400028C
:1002F000A0FB022000047F39140400D0401C50EA07
:10030000124001D44000491EC2B20C0604EBD010CA
:10031000401C4008802A02D003E0002010BD20F0DD
:100320000100002900DA0020184310BD30B480EA33
:10033000010202F0004530F0004221F0004013D0ED
:1003400090B1C30DD40DC2F31601C0F31600E41A28
:1003500041F4000140F400027D34914201D3641C59
:1003600000E04900002C02DA30BC002070474FF456
:1003700000000023914201D3891A034340084FEA49
:100380004101F7D151B1914202D14FF0004105E056
:1003900002D24FF0010101E06FF0010103EBC45004
:1003A000284430BC00F0EEBA2DE9FE4F804681EAC9
:1003B0000300C00F0C46009021F0004123F00045DF
:1003C000B8EB0200A94105D24046214690461C46A2
:1003D0000B46024623F00040104347D0270DC7F3D9
:1003E0000A00C3F30A510290401A019040286BDAC8
:1003F000C3F3130040F4801B0098924620B1002301
:10040000D2EB030A63EB0B0B01985946C0F1400293
:10041000504600F086FA06460D4650465946019A67
:1004200000F09EFA10EB08006141002487EA1152A7
:1004300084EAE7731A4340D0009A62B3019A012A12
:100440004FEA075215DC001B61EB02014FF000423E
:1004500002EA0752CDE90042001C41F58011324604
:100460002B4600F0D5FA03B0BDE8F08F4046214698
:10047000F9E7001B61EB0201001C41F58013001835
:100480005B412018A2F5001747EB030140EAD57045
:10049000B6196D4111E06D084FEA360645EAC075A0
:1004A0004FEA0752001B61EB0201001C41F580116D
:1004B00049084FEA30000019514132462B4603B03B
:1004C000BDE8F04F00F095BA0098012240000023EB
:1004D000D0EB020263EBE073009821464FEAE07430
:1004E000B8EB000061EB0401E9E783F000435BE750
:1004F00081F0004158E72DE9FE4F81EA030404F042
:10050000004421F0004100944FF0000B23F0004321
:1005100050EA01045ED052EA03045BD0C3F30A54EC
:10052000C1F30A552C44A4F2F3340194A0FB025405
:10053000C1F3130141F48011C3F3130343F4801397
:1005400001FB024400FB034E840A970A44EA8154EB
:1005500047EA8357A4FB076802958D0A05FB0785C8
:100560004FEA932C04FB0C542705029D4FEA0658D2
:1005700047EA1637B5EB08056EEB070C870E920EAF
:1005800047EA811742EA8312A7FB0201B6EB0B018F
:1005900064EB00042B0D43EA0C335E1844EB1C5053
:1005A000DA465146E7FB0201C5F313044FEA0B3369
:1005B00043EA14534FEA0432019C43EA0603A4F1D0
:1005C0000C040294009CCDE900B400F021FA03B0C1
:1005D000BDE8F08F00200146F9E72DE9F04D81EAF2
:1005E000030404F0004B21F0004514464FF0000ACC
:1005F00023F0004150EA050220D054EA01021DD048
:10060000C5F30A570246C5F31303C1F31300C1F340
:100610000A5640F4801543F48013A7EB0608101B1C
:10062000D64608F2FD3873EB050002D308F1010845
:1006300001E092185B41B8F1000F03DA0020014697
:10064000BDE8F08D00204FF48011064684460EE090
:10065000171B73EB050705D3121B63EB050306435A
:100660004CEA010C49084FEA300092185B4150EA0D
:100670000107EDD152EA030012D082EA040083EAB6
:100680000501084305D0101BAB4106D2012200230F
:1006900006E000224FF0004302E06FF00102531029
:1006A0001AEB06004CEB085110EB0A0041EB0B0172
:1006B000BDE8F04D00F09DB9002801DBC0F100401D
:1006C000002901DBC1F10041814201D801207047BE
:1006D00000207047002801DBC0F10040002901DB49
:1006E000C1F10041814201D20120704700207047D2
:1006F000002801DBC0F10040002901DBC1F100410D
:10070000814201D30120704700207047002801DB9F
:10071000C0F10040002901DBC1F10041814201D953
:100720000120704700207047002801DBC0F1004025
:10073000002901DBC1F10041814201D10120704754
:100740000020704730B5041E71F1000404DB4FF047
:100750000044404264EB0101141E73F1000405DB08
:100760001C464FF00043524263EB0403101A8B41C6
:1007700001D3012030BD002030BDC10F80EAE07000
:100780000844CA079623002100F005B996230022E9
:10079000114600F000B90EB5C10F80EAE0700844C0
:1007A000CA07002140F233438DE80E000A460B468B
:1007B00000F02EF903B000BD3EB5CA17CB0F0024E0
:1007C00050405140C0186141DA0740F23343009471
:1007D000CDE901232246234600F01AF903B030BDCB
:1007E00000F0004220F00040C10DC0F3160040F4BC
:1007F00000007F2901DA00207047962903DCC1F14F
:100800009601C84001E096398840002AF4D0404261
:10081000704700F0004230F000400AD0C10D01F5F1
:100820006071C0F3160042EA0151C208400711434B
:10083000704700200146704701F0004330B421F0BA
:10084000004150EA010206D00A0DA2F56072C1F320
:100850001301002A02DC30BC00207047440F44EA38
:10086000C104C100E01830BC00EBC25000F08AB8EF
:100870000648804706480047FEE7FEE7FEE7FEE73A
:10088000FEE7FEE7FEE7FEE7FEE7FEE7A52C000831
:100890009101000830B50B460146002020220124BA
:1008A00009E021FA02F59D4205D303FA02F5491B3E
:1008B00004FA02F52844151EA2F10102F1DC30BD54
:1008C0002DE9F05F0546002092469B468846064685
:1008D000814640241BE0284641464746224600F018
:1008E0002FF853465A46C01A914110D31146184664
:1008F000224600F016F82D1A67EB01084F462246F3
:100900000120002100F00DF817EB00094E41201ED8
:10091000A4F10104DFDC484631462A464346BDE8DF
:10092000F09F202A04DB203A00FA02F100207047F1
:100930009140C2F1200320FA03F31943904070471D
:10094000202A04DB203A21FA02F00021704721FA24
:1009500002F3D040C2F1200291400843194670478B
:10096000202A06DBCB17203A41FA02F043EAE07373
:1009700006E041FA02F3D040C2F120029140084360
:10098000194670470029A8BF7047401C490008BF9E
:1009900020F00100704710B4B0FA80FC00FA0CF0AF
:1009A00050EA010404BF10BC704749B1CCF12004E7
:1009B00021FA04F411FA0CF118BF01212143084374
:1009C000A3EB0C01CB1D4FEA00614FEA102042BFA0
:1009D000002010BC704700EBC35010440029A4BF96
:1009E00010BC7047401C490008BF20F0010010BC3B
:1009F000704710B5141E73F1000408DA401C41F171
:100A0000000192185B411A4301D120F0010010BD92
:100A10002DE9F04D92469B4611B1B1FA81F202E008
:100A2000B0FA80F220329046FFF77BFF04460F4673
:100A300040EA0A0041EA0B0153465A46084313D0E4
:100A4000114653EA010019D0C8F140025046FFF7A1
:100A500077FF05460E46504659464246FFF761FF6E
:100A6000084305D0012004E020463946BDE8F08D5A
:100A70000020054346EAE0762C4337430A98630595
:100A8000E40AA0EB08000022FD0A44EA47540A30B9
:100A900002D500200146E9E7010510196941DDE9A9
:100AA000084500196941BDE8F04DA2E7C1F30A52BB
:100AB000C1F3130140F2FF3341F480119A4202DA8C
:100AC00000200146704740F233439A42A2F233427B
:100AD00002DC5242FFF734BFFFF723BF30B5041EDC
:100AE00071F1000404DB4FF00044404264EB01016B
:100AF000141E73F1000405DB1C464FF00043524204
:100B000063EB0403994208BF904230BD064C074D89
:100B100006E0E06840F0010394E8070098471034CD
:100B2000AC42F6D3FFF738FB5C8700087C870008EF
:100B300070B58D1810F8014B14F0030201D110F8B4
:100B4000012B231106D110F8013B03E010F8016BD3
:100B500001F8016B521EF9D1ABB110F8012B04F072
:100B60000C048A1A0C2C03D0A2EB84129B1C08E004
:100B700010F8014BA2EB0422F8E712F8014B01F840
:100B8000014B5B1EF9D5A942D4D3002070BD0000F3
:100B900080B598B0134617901691159216988069F3
:100BA0004BF2EC01C2F2000109680F93FFF78CFBD6
:100BB000FFF72FFE002248F20003C4F266030E92F4
:100BC000FFF799FC42F62852C5F2444242F2FB1369
:100BD000C4F20903FFF701FD0023C4F269030E9A72
:100BE000FFF789FC47F67832C0F6000213685268B6
:100BF0000D9018460C911146FFF7DEFD0D9A0B90F3
:100C000010460C9B0A9119460B9A0A9BFFF7E5FCCC
:100C1000159A099010460891FFF7FBFD099A079075
:100C20001046089B06911946079A069BFFF75DFC44
:100C3000FFF702FE14901798006813901798016848
:100C400040680022CCF2FA3205911146FFF7E4FA2F
:100C50000599049008460499FFF72EFD00281BD142
:100C6000FFE714980021FFF751FD002813D1FFE79B
:100C700014984BF2D001C2F200010968FFF7CCFAD8
:100C8000FFF7C7FD00224FF08043FFF7A6FCFFF7F8
:100C9000D3FD1090FFE741E01798016880680022BB
:100CA000C4F2FA3203911146FFF7B6FA03990290A3
:100CB00008460299FFF71CFD00281BD1FFE7149896
:100CC0000021FFF707FD002813D1FFE714984BF22E
:100CD000D001C2F200010968FFF79EFAFFF799FD03
:100CE00000224FF08043FFF778FCFFF7A5FD10903E
:100CF000FFE712E014984BF2D001C2F2000109683C
:100D0000FFF78AFAFFF785FD00224FF08043FFF7D7
:100D100064FCFFF791FD1090FFE7FFE714984BF29A
:100D2000D001C2F200010968FFF7C8FA11901398C8
:100D30001299FFF771FA1390139817994968FFF702
:100D4000C9FC002804D1FFE717984068019002E031
:100D500013980190FFE701981390139817998968E9
:100D6000FFF7D4FC002804D1FFE7179880680090B3
:100D700002E013980090FFE7009813904BF2D00028
:100D8000C2F2000001684BF2D402C2F2000211600C
:100D90001499016013981799086018B080BD00007D
:100DA0004BF2D800C2F20000002101600021C4F221
:100DB000FA5141600021CCF2FA5181600021C4F265
:100DC0006011C16049F69A11C3F61961016170475B
:100DD00080B584B003900291029800280DD4FFE7FB
:100DE000029942F20120C0F2040004F033FF002017
:100DF0000190019903F054FE0CE00298414242F246
:100E00000120C0F2040004F025FF0020012103F0BE
:100E100047FEFFE7039800280CD4FFE7039944F24C
:100E20000320C0F2040004F015FF0220002103F0AB
:100E300037FE0CE00398414244F20320C0F2040064
:100E400004F008FF0220012103F02AFEFFE704B0AE
:100E500080BD000080B586B00B460590ADF812103D
:100E600003924FF6FF70ADF80A000398F02101934A
:100E7000FFF7B1F9BDF91200182801DCFFE727E000
:100E8000FFE7BDF80A000130ADF80A0000B2BDF975
:100E90001210013988421BDAFFE703980599BDF962
:100EA0000A2001EB8201B1F9021030F9110000288B
:100EB0000DD1FFE70598BDF90A1000EB810230F86B
:100EC00021000399B2F9022021F81200FFE7D8E7C8
:100ED00006B080BD83B0029001910092029800217B
:100EE000A0F8661A0298A0F8641A0298A0F8621A8C
:100EF0000298A0F8601A0298A0F85E1A0298A0F86A
:100F00005C1A0298A0F85A1A0298A0F8581A019888
:100F1000B0F9C800002811D0FFE70098B0F9C80068
:100F200000280BD0FFE70098B0F8C8000199B1F88D
:100F3000C810401A0299A1F8580AFFE70198B0F9C1
:100F4000B400002811D0FFE70098B0F9B4000028E1
:100F50000BD0FFE70098B0F8B4000199B1F8B410D5
:100F6000401A0299A1F85A0AFFE70198B0F9A000C7
:100F7000002811D0FFE70098B0F9A00000280BD09E
:100F8000FFE70098B0F8A0000199B1F8A010401A4E
:100F90000299A1F85C0AFFE70198B0F98C000028DB
:100FA00011D0FFE70098B0F98C0000280BD0FFE7C4
:100FB0000098B0F88C000199B1F88C10401A029991
:100FC000A1F85E0AFFE70198B0F97800002811D077
:100FD000FFE70098B0F9780000280BD0FFE70098F1
:100FE000B0F878000199B1F87810401A0299A1F888
:100FF000600AFFE70198B0F96400002811D0FFE70C
:101000000098B0F9640000280BD0FFE70098B0F812
:1010100064000199B1F86410401A0299A1F8620ABB
:10102000FFE70198B0F95000002811D0FFE70098C1
:10103000B0F9500000280BD0FFE70098B0F850003E
:101040000199B1F85010401A0299A1F8640AFFE71B
:101050000198B0F93C0000280FD0FFE70098B0F9E4
:101060003C00002809D0FFE70098808F0199898F04
:10107000401A0299A1F8660AFFE703B07047000022
:1010800080B58CB047F67410C2F2010028210180AF
:1010900047F67210C2F20100642101804BF2701019
:1010A000C2F20000C06909900999FFF7B5F84FF046
:1010B0008041FFF73BF94BF2EC01C2F200010860FE
:1010C00041F6A870C2F20100007C01281FD1FFE7A1
:1010D00041F6A870C2F2010090F82800012816D14C
:1010E000FFE741F6A870C2F20100016CC06C0890E5
:1010F00008460899FFF790F8FFF78BFB00224FF0A6
:101100008043FFF76AFAFFF797FB0B904AE041F63E
:10111000A870C2F20100007C012810D1FFE741F65F
:10112000A870C2F2010090F82800002807D1FFE75C
:1011300041F6A870C2F20100006C0B9031E041F65C
:10114000A870C2F20100007C002810D1FFE741F630
:10115000A870C2F2010090F82800012807D1FFE72B
:1011600041F6A870C2F20100C06C0B9018E041F685
:10117000A870C2F20100007C002810D1FFE741F600
:10118000A870C2F2010090F82800002807D1FFE7FC
:101190004BF2F800C2F2000000680B90FFE7FFE797
:1011A000FFE7FFE742F20000C2F20100C079012828
:1011B00008D0FFE742F20000C2F20100007A0128E5
:1011C00048D1FFE74BF20410C2F200004CF6CD41CB
:1011D000C3F6CC6101604FF0804141604CF6CD41D7
:1011E000C3F6CC5181600B99079000F087F80798FF
:1011F0008069FFF70EFB4CF6CD42CCF6CC424CF6A4
:10120000CC43C4F20003FFF79DFA00280AD1FFE7A0
:101210004BF20410C2F200008069FFF7FAFA069060
:1012200005910AE04CF6CC40C4F200004CF6CD41EA
:10123000CCF6CC4106910590FFE7059806990490FD
:1012400008460499FFF7F8FA4BF20411C2F20001C4
:10125000886100E0FFE70B994BF20410C2F2000036
:10126000039000F04BF80020C4F260000A9003984D
:1012700080690A99FFF720FA002803D1FFE70A984E
:10128000029006E04BF20410C2F200008069029066
:10129000FFE702980A9981F00041FFF729FA002838
:1012A00005D1FFE70A9880F00040019017E04BF26B
:1012B0000410C2F2000080690A99FFF7FDF90028C6
:1012C00003D1FFE70A98009006E04BF20410C2F247
:1012D000000080690090FFE700980190FFE7019807
:1012E0004BF20411C2F2000188610B984BF2F80135
:1012F000C2F2000108600CB080BD000080B592B061
:101300000A461190109110980F90119880690E90D4
:101310001198016840680F9B0C9018460B920A9137
:1013200000F026FB0C99099008460999FEF7CCFFBE
:101330000A99089008460899FEF76EFF0D900D98DF
:101340000F990791FEF7C0FF119989684BF20012BF
:10135000C2F200021268079B0690184605911146DA
:10136000FEF7ACFF0599049008460499FEF7ACFF20
:101370000699039008460399FEF74EFF0E900E98CB
:101380001199C968FFF7A6F9002804D1FFE7119861
:10139000C068029002E00E980290FFE702980E905B
:1013A0000E9811990969FFF7B1F9002804D1FFE7F8
:1013B00011980069019002E00E980190FFE70198F2
:1013C0000E900F984BF20011C2F2000108600E98C7
:1013D0001199886112B080BD4BF20410C2F2000076
:1013E0000021C4F22011C1600021CCF24001C16093
:1013F000002181614FF07E51016041608160704742
:1014000080B500F05FFF00F073FF00F0CDFDFFF747
:10141000E3FFFFF7C5FC80BD0020C4F202000068B6
:10142000C007002808D0FFE70420C4F202000168CA
:1014300041F001010160FFE7704700000020C4F2A5
:1014400002000068C006002808D5FFE70420C4F2A7
:101450000200016841F010010160FFE770470000E1
:101460000020C4F202000068C005002808D5FFE78C
:101470000420C4F20200016841F480710160FFE7BA
:101480007047000080B50020C4F202000068C0046C
:1014900000280ED5FFE74BF24C00C2F200000068B6
:1014A00080470420C4F20200016841F480510160C9
:1014B000FFE780BD0020C4F202000068C0030028DE
:1014C00008D5FFE70420C4F20200016841F480312E
:1014D0000160FFE7704700000020C4F202000068CE
:1014E000C002002808D5FFE70420C4F2020001680A
:1014F00041F480110160FFE7704700000020C4F252
:1015000002000068C001002808D5FFE70420C4F2EB
:101510000200016841F080710160FFE77047000040
:1015200040F20040C4F202000068C007002809D061
:10153000FFE740F20440C4F20200016841F00101FB
:101540000160FFE77047000040F20040C4F2020073
:101550000068C006002809D5FFE740F20440C4F245
:101560000200016841F010010160FFE770470000D0
:1015700040F20040C4F202000068C005002809D50E
:10158000FFE740F20440C4F20200016841F48071B8
:101590000160FFE77047000040F20040C4F2020023
:1015A0000068C004002809D5FFE740F20440C4F2F7
:1015B0000200016841F480510160FFE770470000BC
:1015C00040F20040C4F202000068C003002809D5C0
:1015D000FFE740F20440C4F20200016841F48031A8
:1015E0000160FFE77047000040F21440C4F20100C0
:1015F000016841F0010101607047000040F21440B1
:10160000C4F2010000684005002809D5FFE740F258
:101610001440C4F20100016841F480610160FFE7F9
:1016200040F21440C4F2010000680005002809D50A
:10163000FFE740F21440C4F20100016841F4006188
:101640000160FFE740F21440C4F201000068C004EA
:10165000002809D5FFE740F21440C4F201000168F8
:1016600041F480510160FFE740F21440C4F20100F0
:1016700000688004002809D5FFE740F21440C4F256
:101680000100016841F400510160FFE740F214409D
:10169000C4F2010000684004002809D5FFE740F2C9
:1016A0001440C4F20100016841F480410160FFE789
:1016B00040F21440C4F2010000680004002809D57B
:1016C000FFE740F21440C4F20100016841F4004118
:1016D0000160FFE77047000040F21440C4F20100CF
:1016E000016841F0020101607047000040F21440BF
:1016F000C4F20100016841F004010160704700007C
:1017000040F21440C4F20100016841F00801016098
:101710007047000040F21440C4F20100016841F03B
:10172000100101607047000080B540F21440C4F21F
:10173000010000688006002809D5FFE740F2144048
:10174000C4F20100016841F020010160FFE740F2AE
:101750001440C4F2010000684006002809D5FFE7E4
:1017600040F21440C4F20100016841F04001016000
:10177000FFE740F21440C4F20100006800060028B0
:1017800009D5FFE740F21440C4F20100016841F0BE
:1017900080010160FFE740F21440C4F201000068DC
:1017A000C00500280FD5FFE74BF25400C2F200003D
:1017B0000068804740F21440C4F20100016841F41F
:1017C00080710160FFE740F21440C4F2010000683C
:1017D0008005002809D5FFE740F21440C4F201005B
:1017E000016841F400710160FFE780BD4BF2C86001
:1017F000C2F20000B0F900004BF22011C2F2000169
:101800000A684B68121843EBE0700A6048604BF2BC
:10181000CA60C2F20000B0F900004BF2E811C2F257
:1018200000010A684B68121843EBE0700A604860D8
:101830007047000080B5032043F2262143F227229F
:1018400002F05EFC022042F2242142F2252202F044
:1018500057FC80BD80B582B00146019001984FF0E1
:101860008B4200911146FEF761FDFEF7D2FF002288
:101870000023C3F6F073FEF797FDFEF7DDFF01903E
:1018800001990198FEF720FD019001990198FEF75A
:101890001BFD019001990198FEF716FD0190019939
:1018A0000198FEF711FD019001990198FEF70CFDDA
:1018B000019001990198FEF707FD019001990198A7
:1018C000FEF702FD019001990198FEF7FDFC0190E1
:1018D00001990198FEF7F8FC019001990198FEF733
:1018E000F3FC019001990198FEF7EEFC019001993B
:1018F0000198FEF7E9FC0190019802B080BD00005C
:1019000080B588B00146079007984FF07C5204914B
:101910001146FEF7D9FC069007980590059840F20D
:10192000F341C5F63571A1EB60000590059807906D
:1019300007980699079A039008461146FEF7C4FCDB
:101940000799FEF7C1FC4FF07F51029008460299BB
:10195000FEF7B4FC0399019008460199FEF7B4FC28
:10196000079007994FF07E50FEF7E0FC08B080BD6D
:1019700080B584B001460290029800220191114680
:10198000FEF7A8FE002803D1FFE70298039004E0C9
:10199000029880F000400390FFE7039804B080BDF8
:1019A00080B582B00320019002F03AFB4BF2C8618F
:1019B000C2F200010880019802F0EAFA02200090C9
:1019C00002F02EFB40424BF2CA61C2F200010880D5
:1019D000009802F0DDFA02B080BD000080B582B050
:1019E00040F60060C0F2277001F0FAFD02F01EF828
:1019F0000120019003F00CFA44F24020C0F20F00E5
:101A00004FF47A7104F032FC00F088FCE2200321EC
:101A10001023019A02F050FF00F0ECFAFFF70AFFE2
:101A200004F082FF02B080BD80B584B013460390FD
:101A30000291ADF806204FF6FF70ADF80400029851
:101A4000BDF9061089000093FEF7C5FBFFE7BDF85E
:101A500004000130ADF8040000B2BDF90610884260
:101A600029DAFFE70398BDF9041000EB8102B2F90F
:101A7000022030F92100BC2302FB030040F20002E7
:101A8000C2F20002105C029A22F821000398BDF90C
:101A9000041000EB8102B2F9022030F9210002FBB0
:101AA000030045F62002C2F20002105C029A02EB2B
:101AB00081014880CBE704B080BD000010B598B02C
:101AC000DDF868C09E46144617901691ADF8562072
:101AD000ADF8543016984FF47071CDF840C0CDF881
:101AE0003CE00E94FEF777FB4FF6FF70ADF8520026
:101AF000FFE7BDF852000130ADF8520000B2BDF969
:101B00005610884280F2B680FFE71798BDF8521051
:101B1000BDF854201144BDF85620013A09B212B262
:101B200000230D90084619460C9301F02DFD0D99E8
:101B300051F830001799BDF85220BDF85430D21A30
:101B4000BDF85630013B12B21BB20B9010460C9AF6
:101B50000A9111461A4601F017FD0A9951F8301002
:101B60000B98FEF7ABFB13901798BDF85210BDF819
:101B700054201144BDF85620013A09B212B209901E
:101B800008460C9901F000FD099901EBC00040687E
:101B90001799BDF85220BDF85430D21ABDF856300E
:101BA000013B12B21BB2089010460C9A07911146E5
:101BB0001A4601F0E9FC079901EBC000416808985A
:101BC000FEF77CFB129013981399FEF77DFB129998
:101BD000129A069008461146FEF776FB0699059084
:101BE00008460599FEF718FBFFF78AFE1190119839
:101BF0000C99FEF799FD002801D0FFE779E71398CB
:101C00001199FEF793FB139012981199FEF78EFB32
:101C100012901798BDF9521050F8310012991A9A83
:101C2000049008461146FEF74FFB049903900846BE
:101C30000399FEF743FB1699BDF9522041F8320093
:101C40001798BDF9521000EBC100406813991A9A19
:101C5000029008461146FEF737FB029901900846AC
:101C60000199FEF7D9FA1699BDF9522001EBC2018C
:101C700048603EE718B010BD10B58EB0DDF848C022
:101C8000DDF844E0109C0D910C900B920A93ADF896
:101C90002640ADF824E0BDF9260000EBD0704008E6
:101CA000ADF822000020ADF818008DF817008DF86F
:101CB00016000B99129AB2F9002092000390084680
:101CC0001146CDF808C0FEF786FA0A981299B1F9C4
:101CD0000010FEF780FA129803990180BDF93600D2
:101CE0000130002801D1FFE75BE10B98BDF9181026
:101CF0004A1CADF818200D9A40F82120BDF8340098
:101D0000ADF81E00BDF83600ADF82000FFE7BDF9C4
:101D10001E000021B528019124DCFFE7BDF91E005B
:101D20000021052801911DDBFFE7BDF920000021FE
:101D30007228019116DCFFE7BDF92000002104287C
:101D400001910FDBFFE79DF91600002103280191A7
:101D500008DCFFE7BDF9180000217828B8BF012191
:101D60000191FFE70198C007002800F01581FFE707
:101D70000020ADF81400BDF82200C043ADF81A00F1
:101D8000FFE7BDF81A000130ADF81A0000B2BDF946
:101D90002210884227DCFFE7BDF82200C043ADF8DF
:101DA0001C00FFE7BDF81C000130ADF81C0000B2BC
:101DB000BDF92210884215DCFFE70C98BDF9201010
:101DC000BDF91A201144BC2201FB0200BDF91E100E
:101DD000BDF91C201144405CBDF814100844ADF856
:101DE0001400DFE7CDE7BDF926004043BDF914102C
:101DF00091FBF0F0ADF81400BDF82400BDF814100C
:101E0000081AADF814000C98BDF920109DF91720A0
:101E100047F69D33C0F6000303EB420C13F9122082
:101E20001144BC2201FB0200BDF91E109CF90130D7
:101E30001944405CADF812000C98BDF920109DF9D2
:101E4000173047F6A53CC0F6000C0CEB430E1CF90E
:101E50001330194401FB0200BDF91E109EF9012048
:101E60001144405CADF81000BDF91200BDF914102A
:101E7000884210DAFFE79DF8160001308DF8160051
:101E80009DF91700013000EB907101F0FC01401A40
:101E90008DF817007FE0BDF91000BDF914108842DD
:101EA00037DAFFE79DF9170047F69D31C0F60001CC
:101EB00011F91000BDF820201044ADF820009DF964
:101EC000170001EB400090F90100BDF81E10084416
:101ED000ADF81E009DF8170001300A99BDF91820D1
:101EE0008854BDF820000B99BDF9182001EB820140
:101EF0004880BDF81E000B99BDF9182021F822007A
:101F0000BDF818000130ADF8180000208DF816005B
:101F100040E09DF9170047F6A531C0F6000111F920
:101F20001000BDF820201044ADF820009DF91700E6
:101F300001EB400090F90100BDF81E100844ADF817
:101F40001E009DF8170005300A99BDF91820885425
:101F5000BDF820000B99BDF9182001EB82014880E3
:101F6000BDF81E000B99BDF9182021F82200BDF81C
:101F700018000130ADF818009DF91700033000EB90
:101F8000907101F0FC01401A8DF8170000208DF8C7
:101F90001600FFE7FFE7BAE6BDF8180012990880BF
:101FA000FFE70EB010BD00004BF22810C2F2000097
:101FB0000021C4F28C21016000214160C1600161F7
:101FC00049F69A11C3F6196181614DF20A72C3F69E
:101FD000A342C261016242620021C4F20C2181620B
:101FE000C1624CF28F22C3F6F54202634163816302
:101FF000C263704780B584B042F20120C0F2040091
:1020000044F2682100220391029203F0F7FC0320BE
:102010001021029A01901046019B00911946009BE5
:1020200002F04AFC44F20320C0F204000399029A31
:1020300003F0E4FC02200199029A009B02F03CFCB0
:1020400004B080BD80B5AEB013462D902C91ADF894
:10205000AE202D98C069BDF9AE102390084622939A
:10206000FEF78BFB2399219008462199FEF726F96C
:102070002A902C98816AC26A006B209008461F92B1
:10208000FEF7C7FB1F9A1E9010461D91FEF7C1FB7D
:102090002A9A1C9010461B91FFF76AFC20991A900F
:1020A00008461A99FEF710F9FFF7D4FBFEF7B1FBCB
:1020B00000220023C3F6F0731990104618911946B8
:1020C000DDF864C017926246DDF860E0169373464F
:1020D000FEF783FA179A15901046169B149119462D
:1020E000159A149BFEF701FA1C9A139010461B9B3D
:1020F00012911946139A129BFEF7FDF91E9A119040
:1021000010461D9B10911946119A109BFEF74CF931
:10211000FEF792FB25902C98C0692A990F900846EB
:10212000FFF726FC0F990E9008460E99FEF7CCF8A3
:10213000FFF790FBFEF76DFB179A0D901046169B6C
:102140000C9119460D9A0C9BFEF747FA2C9A92694E
:102150000B9010460A91FEF75CFB0B9A0990104613
:102160000A9B08911946099A089BFEF7C4F9FEF7E5
:1021700063FB24902D98406A29902D984169406A0C
:102180000022CCF2FA32079008461146FEF744F8D6
:102190000799069008460699FEF78EFA00280BD19B
:1021A000FFE72A980021FEF7B1FA002803D1FFE7E4
:1021B0002A982690FFE732E02D988169406A002234
:1021C000C4F2FA32059008461146FEF725F8059943
:1021D000049008460499FEF78BFA00280BD1FFE71C
:1021E0002A980021FEF776FA002803D1FFE72A9803
:1021F0002690FFE712E02A984BF26811C2F2000124
:102200000968FEF709F8FEF704FB00224FF080434F
:10221000FEF7E3F9FEF710FB2690FFE7FFE72A98A9
:102220004BF26811C2F200010968FEF747F82790E7
:1022300025982799FEF748F82499269A039008468E
:102240001146FEF741F80399029008460299FDF7FE
:10225000E3FF289029982899FDF7DEFF2990299817
:102260002D994969FEF736FA002804D1FFE72D9829
:102270004069019002E029980190FFE701982990B8
:1022800029982D998969FEF741FA002804D1FFE7C2
:102290002D988069009002E029980090FFE700984F
:1022A00029904BF26810C2F2000001684BF26C12E8
:1022B000C2F2000211602A99016029982D994862A2
:1022C0002EB080BD4BF27010C2F2000000214162BE
:1022D0000021C4F2C821C1610022C4F2FA52426155
:1022E0000022CCF2FA528261016301627047000061
:1022F0004BF2AC10C2F20000002141620021C4F296
:10230000C821C1610022C4F2FA5242610022CCF21B
:10231000FA528261016301627047000080B582B0A9
:102320004BF29800C2F20000006844F6D351C1F2AB
:102330006201A0FB0101890901EB810105220190E5
:10234000104603F0C1FA3620002102F0A3FC02B0CF
:1023500080BD000080B59EB09C4696461D901C91A5
:10236000ADF86E20ADF86C30BDF96C0000EBD070AC
:102370004008ADF866001C98BDF96E10C900CDF894
:1023800060C0CDF85CE0FDF726FF4FF6FF70ADF8BA
:102390006A00FFE7BDF86A000130ADF86A0000B2DC
:1023A000BDF96E10884280F2DD80FFE71C98BDF910
:1023B0006A10002240F831201C98BDF96A1000EB29
:1023C000C1004260BDF86600C043ADF86800FFE799
:1023D000BDF868000130ADF8680000B2BDF96610C4
:1023E000884200F38880FFE71D98BDF86A10BDF8A9
:1023F00068201144BDF86E20013A09B212B20023E0
:10240000169008461946159301F0BEF8169931F951
:102410002000FEF7B2F9BDF96610013114900846AC
:10242000FEF7ABF9BDF9681013900846FEF7A5F961
:10243000FFF79EFA1399129008461299FDF73EFF96
:102440001499119008461199FDF73EFF1C99BDF9AA
:102450006A2051F8323010901846109B0F9119469F
:102460000E92FDF7D9FE0F990E9A41F832001D9891
:10247000BDF86A30BDF868C06344BDF86EC0ACF109
:10248000010C1BB20FFA8CF20D901846159901F051
:102490007BF80D9901EB8000B0F90200FEF76DF9B1
:1024A000BDF9661001310C900846FEF766F9BDF9DA
:1024B00068100B900846FEF760F9FFF759FA0B9980
:1024C0000A9008460A99FDF7F9FE0C99099008460A
:1024D0000999FDF7F9FE1C99BDF96A2001EBC201CB
:1024E0004A6808901046089A07911146FDF794FE35
:1024F000079948606CE7BDF96600022101EB4002D4
:102500000130504340100691FEF737F91C99BDF990
:102510006A2051F8323005901846059B04911946FF
:102520000392FDF703FF0499039A41F83200BDF9C5
:102530006600069B03EB400C01300CFB00F04010E2
:10254000FEF71BF91C99BDF96A2001EBC2014A682C
:1025500002901046029A01911146FDF7E7FE01999B
:10256000486017E71EB080BD80B594B0DDF858C054
:10257000964613901291ADF8462010931298109938
:10258000B1F90010C900CDF81CC0CDF818E0FDF776
:1025900022FE109800210180BDF946000128C0F2FA
:1025A000B780FFE70020ADF83E000E904FF6FF70B9
:1025B000ADF83600FFE7BDF836000130ADF8360063
:1025C00000B2BDF94610013900228842059208DAAE
:1025D000FFE7BDF93E0000217828B8BF0121059131
:1025E000FFE70598C007002800F08D80FFE71398EB
:1025F000BDF9361050F831000C901398BDF9361023
:1026000000EBC10040680B901398BDF9361000EB49
:10261000C10080680C99FDF751FE0A901398BDF92E
:10262000361000EBC100C0680B99FDF747FE09901A
:102630000A980A99FDF748FE0999099A04900846F4
:102640001146FDF741FE0499039008460399FDF7F2
:10265000E3FDFFF755F9089008990A98FDF766FE23
:102660000A9008990998FDF761FE0990FFE70E9816
:102670000899FEF73DF800210028029108D1FFE7F4
:10268000BDF93E0000217828B8BF01210291FFE783
:102690000298C007002830D0FFE70A980E99FDF78E
:1026A00013FE0C99019008460199FDF7B5FD0C90B9
:1026B0000C981299BDF93E2041F8320009980E9904
:1026C000FDF702FE0B99009008460099FDF7A4FD66
:1026D0000B900B981299BDF93E2001EBC2014860A6
:1026E000BDF83E000130ADF83E000E990898FDF7A8
:1026F000E5FD089016980E90B9E708990E98FDF739
:10270000DDFD0E9057E7BDF83E0010990880FFE709
:1027100014B080BD10B598B0DDF868C09E46144670
:1027200017901691ADF85620ADF8543016984FF426
:102730007071CDF840C0CDF83CE00E94FDF74BFD34
:102740004FF6FF70ADF85200FFE7BDF852000130C0
:10275000ADF8520000B2BDF95610884280F2B68042
:10276000FFE71798BDF85210BDF854201144BDF88A
:102770005620013A09B212B200230D9008461946BC
:102780000C9300F001FF0D9951F830001799BDF836
:102790005220BDF85430D21ABDF85630013B12B267
:1027A0001BB20B9010460C9A0A9111461A4600F083
:1027B000EBFE0A9951F830100B98FDF77FFD13904E
:1027C0001798BDF85210BDF854201144BDF856209A
:1027D000013A09B212B2099008460C9900F0D4FEF1
:1027E000099901EBC00040681799BDF85220BDF867
:1027F0005430D21ABDF85630013B12B21BB20890C9
:1028000010460C9A079111461A4600F0BDFE079932
:1028100001EBC00041680898FDF750FD1290139835
:102820001399FDF751FD1299129A06900846114628
:10283000FDF74AFD0699059008460599FDF7ECFC61
:10284000FFF75EF8119011980C99FDF76DFF0028C5
:1028500001D0FFE779E713981199FDF767FD139011
:1028600012981199FDF762FD12901798BDF9521058
:1028700050F8310012991A9A049008461146FDF753
:1028800023FD0499039008460399FDF7C5FC1699AA
:10289000BDF9522041F832001798BDF9521000EBF3
:1028A000C100406813991A9A029008461146FDF734
:1028B0000BFD0299019008460199FDF7FFFC16995E
:1028C000BDF9522001EBC20148603EE718B010BDCF
:1028D00010B58EB0DDF848C0DDF844E0109C0D91D5
:1028E0000C900B920A93ADF82640ADF824E0BDF9A8
:1028F000260000EBD0704008ADF822000020ADF8B3
:1029000018008DF817008DF816000B99129AB2F97D
:1029100000209200039008461146CDF808C0FDF74C
:102920005AFC0A981299B1F90010FDF754FC12985C
:1029300003990180BDF936000130002801D1FFE77D
:102940005BE10B98BDF918104A1CADF818200D9AE0
:1029500040F82120BDF83400ADF81E00BDF8360067
:10296000ADF82000FFE7BDF91E000021B528019158
:1029700024DCFFE7BDF91E000021052801911DDBC5
:10298000FFE7BDF9200000217228019116DCFFE766
:10299000BDF920000021042801910FDBFFE79DF91C
:1029A000160000210328019108DCFFE7BDF918009B
:1029B00000217828B8BF01210191FFE70198C007E5
:1029C000002800F01581FFE70020ADF81400BDF8E5
:1029D0002200C043ADF81A00FFE7BDF81A0001302D
:1029E000ADF81A0000B2BDF92210884227DCFFE7DB
:1029F000BDF82200C043ADF81C00FFE7BDF81C0085
:102A00000130ADF81C0000B2BDF92210884215DC7F
:102A1000FFE70C98BDF92010BDF91A201144BC2223
:102A200001FB0200BDF91E10BDF91C201144405CE1
:102A3000BDF814100844ADF81400DFE7CDE7BDF988
:102A400026004043BDF9141091FBF0F0ADF81400DE
:102A5000BDF82400BDF81410081AADF814000C9845
:102A6000BDF920109DF9172047F69D33C0F60003ED
:102A700003EB420C13F912201144BC2201FB0200AB
:102A8000BDF91E109CF901301944405CADF81200EC
:102A90000C98BDF920109DF9173047F6AD3CC0F6F3
:102AA000000C0CEB430E1CF91330194401FB02001F
:102AB000BDF91E109EF901201144405CADF81000D4
:102AC000BDF91200BDF91410884210DAFFE79DF835
:102AD000160001308DF816009DF91700033000EB49
:102AE000907101F0FC01401A8DF817007FE0BDF9EC
:102AF0001000BDF91410884237DAFFE79DF917007E
:102B000047F69D31C0F6000111F91000BDF82020F4
:102B10001044ADF820009DF9170001EB400090F93A
:102B20000100BDF81E100844ADF81E009DF8170006
:102B300001300A99BDF918208854BDF820000B997E
:102B4000BDF9182001EB82014880BDF81E000B99E9
:102B5000BDF9182021F82200BDF818000130ADF8A9
:102B6000180000208DF8160040E09DF9170047F688
:102B7000AD31C0F6000111F91000BDF8202010445D
:102B8000ADF820009DF9170001EB400090F901001D
:102B9000BDF81E100844ADF81E009DF81700053062
:102BA0000A99BDF918208854BDF820000B99BDF989
:102BB000182001EB82014880BDF81E000B99BDF979
:102BC000182021F82200BDF818000130ADF81800D7
:102BD0009DF91700013000EB907101F0FC01401AE3
:102BE0008DF8170000208DF81600FFE7FFE7BAE622
:102BF000BDF8180012990880FFE70EB010BD000064
:102C000080B58AB0DDF830C009900891079206932C
:102C10004BF2F810C2F200000290FFE7029890F920
:102C2000000018B9FFE700F0E1FAFFE7FFE74BF219
:102C3000F810C2F200000490099802282AD8FFE791
:102C4000EFF311804FF0200181F311880190049877
:102C5000099901EB410100EBC1001830039009987C
:102C600078B1FFE7089803990860079803994860CE
:102C70000698039988600399002008610399C86049
:102C8000FFE70C9803994861019880F311880020B0
:102C9000059003E04FF0FF300590FFE705980AB07C
:102CA00080BD000080B54DF60000C0F2B85000F0C5
:102CB00097FC80BD42F61040C4F201000168026832
:102CC00022EA0101016070471020C4F2000001688F
:102CD000026822EA010101607047000040F21040E2
:102CE000C4F200000168026822EA01010160704735
:102CF00040F61000C4F200000168026822EA0101F7
:102D00000160704740F61040C4F20000016802689C
:102D100022EA01010160704780B58CB04BF2F410DB
:102D2000C2F200000188013101804BF2F010C2F2C2
:102D300000000188013101804BF2F211C2F2000162
:102D40000A8801320A800088042809DBFFE74BF279
:102D5000F010C2F2000000210180FEF791F9FFE7B8
:102D60004BF2F410C2F2000000880128C0F2AE80DD
:102D7000FFE74BF2F410C2F20000002101800B913A
:102D8000FEF70EFE4BF2C860C2F20000B0F9000080
:102D90004BF2CA61C2F20001B1F900100844FDF71C
:102DA000FAFC4FF080430B9AFDF717FCFDF744FD4A
:102DB0004BF2CC61C2F2000105220A9008460A9942
:102DC00000F09CFD4BF2EC01C2F20001086042F2FF
:102DD0002800C2F201000068FEF7CAFD0021C4F21B
:102DE000F011FDF769FC002836D1FFE74BF2EC004B
:102DF000C2F200000068FDF70CFD42F22802C2F2A8
:102E000001021268099010460891FEF7B1FDFDF726
:102E100000FD4BF65202C8F21E5245F2EB13C3F608
:102E2000B873FDF768FB002244F20003C4F25003BC
:102E3000FDF761FB099A07901046089B0691194619
:102E4000079A069BFDF7B0FAFDF7F6FC4BF2FC0182
:102E5000C2F2000108600AE04BF2EC00C2F200008E
:102E600000684BF2FC01C2F200010860FFE7FEF7C8
:102E7000BDFC42F22800C2F2010002684BF2D80009
:102E8000C2F200004BF20411C2F200010590FDF7FE
:102E90007FFE4BF27010C2F20000406A05990A688A
:102EA000049011460392FDF709FAFDF799FC039986
:102EB000029008460499FDF701FAFDF791FC02998A
:102EC000019008460199FDF783FFFFE74BF2C860C8
:102ED000C2F20000B0F900204BF27010C2F2000004
:102EE0004BF22811C2F20001FFF7ACF84BF2F210DE
:102EF000C2F200000088012817DBFFE74BF2F21056
:102F0000C2F20000002101804BF2C860C2F2000052
:102F1000B0F900204BF27010C2F200004BF2281101
:102F2000C2F20001FFF78EF8FFE741F21000C4F291
:102F300000000168026822EA010101600CB080BD56
:102F400041F21040C4F200000168026822EA010167
:102F50000160704780B503F057FA43F21040C4F2A5
:102F600001000168026822EA0101016080BD0000E1
:102F700043F60C00C4F201000068C007002809D025
:102F8000FFE743F61400C4F20100016841F00101BB
:102F90000160FFE743F60C00C4F2010000688007FF
:102FA000002809D5FFE743F61400C4F201000168C8
:102FB00041F002010160FFE77047000044F20C405D
:102FC000C4F200000068C007002809D0FFE744F2FF
:102FD0001440C4F20000016841F001010160FFE704
:102FE00044F20C40C4F2000000688007002809D5B4
:102FF000FFE744F21440C4F20000016841F002010E
:103000000160FFE77047000080B544F60C00C4F291
:1030100000000068C007002809D0FFE744F614004C
:10302000C4F20000016841F001010160FFE744F6CD
:103030000C00C4F200000068800700280BD5FFE7F1
:1030400001F060FD44F61400C4F20000016841F094
:1030500002010160FFE780BD44F60C40C4F20000AD
:103060000068C007002809D0FFE744F61440C4F206
:103070000000016841F001010160FFE744F60C40E7
:10308000C4F2000000688007002809D5FFE744F675
:103090001440C4F20000016841F002010160FFE742
:1030A0007047000045F20C00C4F200000068C00741
:1030B000002809D0FFE745F21400C4F200000168BF
:1030C00041F001010160FFE745F20C00C4F200008D
:1030D00000688007002809D5FFE745F21400C4F214
:1030E0000000016841F002010160FFE77047000045
:1030F00080B543F60C40C4F201000068C007002808
:1031000009D0FFE743F61440C4F20100016841F022
:1031100001010160FFE743F60C40C4F201000068C2
:10312000800700280FD5FFE74BF2C400C2F2000071
:103130000068804743F61440C4F20100016841F082
:1031400002010160FFE780BD47F60C00C4F20000F9
:103150000068C007002809D0FFE747F61400C4F252
:103160000000016841F001010160FFE747F60C0033
:10317000C4F2000000688007002809D5FFE747F681
:103180001400C4F20000016841F002010160FFE791
:103190007047000080B547F60C40C4F2000000689C
:1031A000C007002809D0FFE747F61440C4F200002A
:1031B000016841F001010160FFE747F60C40C4F2ED
:1031C00000000068800700280FD5FFE74BF2500091
:1031D000C2F200000068804747F61440C4F20000C5
:1031E000016841F002010160FFE780BD80B582B057
:1031F0004BF2F810C2F2000001900198A821FCF7F0
:10320000EAFF01990320086101994861019848F299
:10321000FF51C0F600018161019A4BF2B020C2F269
:103220000000D061019A4FF480601062019A002082
:103230009062019A5062019AD062019A1166019AD5
:103240004BF2A021C2F200015166019A1021916651
:10325000019908670199C866019948670090FFE7DE
:1032600000980F280ED8FFE7009A47F68C30C0F67A
:103270000000801AC07B01998854FFE70098013054
:103280000090EDE702B080BD81B08DF803009DF99C
:103290000300002812D4FFE79DF9031001F01F027C
:1032A000012090404A094EF28011CEF2000141F80F
:1032B0002200BFF34F8FBFF36F8FFFE701B070475E
:1032C00081B08DF803009DF9030000280ED4FFE7BC
:1032D0009DF9031001F01F02012090404A094EF2AF
:1032E0000011CEF2000141F82200FFE701B0704763
:1032F00082B08DF8070000919DF9070000280AD4DC
:10330000FFE7009840019DF907104EF20042CEF20F
:10331000000288540BE0009840019DF8071001F06E
:103320000F014EF61452CEF200028854FFE702B0AD
:103330007047000083B00290029800F007000090F0
:103340004EF60C51CEF200010868019001984FF63C
:10335000FF02104001900198009A40EA02200022EA
:10336000C0F2FA52104301900198086003B0704710
:1033700081B0ADF80200BDF80200000B8DF801002D
:10338000BDF80200C0F30321012000FA01F19DF80D
:1033900001204BF24000C2F2000050F82220D16020
:1033A0009DF8011050F82110886840F48070886002
:1033B000FFE79DF801104BF24000C2F2000050F808
:1033C00021004069C00708B9FFE7F2E79DF8011046
:1033D0004BF24000C2F2000050F82120516941F048
:1033E000010151619DF8011050F8210000686FF350
:1033F0001F309DF801204BF2B061C2F20001895CE0
:10340000C84001B07047000083B08DF80B008DF804
:103410000A108DF809208DF80830002001909DF8E1
:103420000B0040098DF803009DF80B0000F01F0011
:103430008DF802009DF80310012000FA01F241F21C
:103440002801C4F202010868104308609DF80200D8
:10345000072847DCFFE79DF803004BF26001C2F24A
:10346000000151F82000006A01909DF802008200DE
:103470000F2000FA02F3019A9A4301929DF8092065
:103480009DF802309B0002FA03F3019A1A4301925D
:10349000019A9DF8033051F823301A629DF80320F9
:1034A00051F82220126801929DF80220920000FA41
:1034B00002F20198904301909DF80A009DF80820BF
:1034C00002F00C0210439DF80220920000FA02F272
:1034D00001981043019001989DF8032051F82210A3
:1034E00008604FE09DF803004BF26001C2F200015A
:1034F00051F82000406A01909DF802006FF01F0211
:1035000002EB80030F2000FA03FC019B23EA0C036B
:1035100001939DF809309DF802C002EB8C0C03FA70
:103520000CFC019B43EA0C030193019B9DF803C033
:1035300051F82CC0CCF824309DF8033051F82330DA
:103540005B6801939DF8023002EB830300FA03F3FA
:103550000198984301909DF80A009DF8083003F007
:103560000C0318439DF8023002EB830200FA02F2CA
:1035700001981043019001989DF8032051F8221002
:103580004860FFE703B0704780B584B013468C46AF
:103590008646ADF80E00ADF80C10ADF80A20BDF966
:1035A0000E00BDF90A10884204DDFFE7BDF90A00EC
:1035B000019011E0BDF90E00BDF90C10884204DA4B
:1035C000FFE7BDF90C00009003E0BDF90E0000908C
:1035D000FFE700980190FFE7019800B204B080BDBA
:1035E00080B582B0019001984BF29801C2F20001BF
:1035F000086000F007F8019800F050F801F044FB73
:1036000002B080BD81B041F20001C4F2020100911C
:10361000086840F00100086041F20402C4F20202AE
:1036200010684CF20C03CFF6FF03184010600868D6
:103630004FF6FF73CFF6F66318400860086820F471
:1036400080200860106820F44300106008684FF67E
:10365000FF72C0F28F021040086041F20801C4F20C
:1036600002014FF41F00086046F20001C4F201019C
:10367000086820F018000860086840F00100086041
:10368000FFE746F20400C4F20100006800F0030006
:10369000022801D0FFE7F4E701B0704780B586B09B
:1036A000059000200490039041F20001C4F2020151
:1036B000086840F48030086005984DF60101C0F2BA
:1036C000B85188421DD3FFE741F23001C4F2020134
:1036D00008680390039840F08050039003980860B6
:1036E00047F20001C4F2000108680390039820F437
:1036F00040400390039840F44040039003980860D2
:10370000FFE700200390FFE741F20000C4F202004F
:10371000006800F400300490039801300390FFE744
:1037200004990020029039B9FFE70398B0F5706062
:1037300018BF01200290FFE70298C0070028E3D1DC
:10374000FFE741F20000C4F2020000688003002895
:103750000DD5FFE7012004904FF4FA600390FFE7D6
:103760000398411E039108B1FFE7F9E702E000204A
:103770000490FFE70498012840F0BC80FFE742F284
:103780000001C4F20201086840F0100008600868F7
:1037900020F0070008600598013849F68172C1F2EF
:1037A0005E62A0FB0220C0F342520868104308602A
:1037B00005980138400A4CF69921C0F22301A0FB7C
:1037C000010C41F20401C4F20201086840F08002D9
:1037D0000023B3EBDC1F18BF10460860059841F2C8
:1037E0000021C0F27A01884219D1FFE741F20401B9
:1037F000C4F20201086820F003000860086840F085
:1038000001000860FFE741F20400C4F20200006812
:1038100000F00C00042801D0FFE7F4E769E041F272
:103820004801C4F202010091086820F0030008601A
:10383000086840F00100086041F23001C4F2020162
:10384000086840F080500860059841F20021C0F2FD
:103850007A01019100F0F6FF009902460198039267
:103860000A684FF6FF03CFF680731A400A60039A86
:10387000B0FBF2F26FF0FF0000EB02220868104389
:1038800008600598039AB0FBF2F20020CFF6FF70B3
:1038900000EB024208681043086041F20001C4F2E4
:1038A0000201086840F080700860FFE741F2000004
:1038B000C4F2020000688001002801D4FFE7F5E7A8
:1038C00041F20401C4F20201086820F0030008601C
:1038D000086840F002000860FFE741F20400C4F20B
:1038E0000200006800F00C00082801D0FFE7F4E7B0
:1038F000FFE701E0FFE7FEE706B080BD80B588B0D6
:1039000013468C46079006918DF8172000200490EE
:103910000699079A9DF817E042F82E108DF80F00CF
:10392000FFE79DF80F009DF81710884218DAFFE7AF
:1039300007989DF80F1000EB8102526840F8212093
:1039400007989DF80F1050F821100498FCF764FCBC
:103950000490FFE79DF80F0001308DF80F00E0E7BD
:1039600004989DF8171002900846FCF70FFF029983
:10397000019008460199FCF7D9FC08B080BD000011
:1039800080B584B08DF80F0002910192FFE79DF899
:103990000F0038B9FFE74BF2C800C2F20000007810
:1039A00008B9FFE720E04BF2B360C2F200000078F4
:1039B00010B1FFE7FFE7FEE74BF2B361C2F200018F
:1039C00008780130087001F04DF900F05FFAFFE768
:1039D0000299019A48F20D40C0F60000002300F061
:1039E0003FF800F003F8F3E704B080BD82B0002098
:1039F000019000900190FFE70198FF2814D8FFE79D
:103A000000200090FFE700990020B0EB114F06D195
:103A1000FFE700BFFFE7009801300090F3E7FFE702
:103A2000019801300190E7E702B0704780B586B099
:103A300001A8009000F012FA009843F67D71C0F6DC
:103A40000001039100F0E4F900204FF4E13140F26D
:103A5000097240F20A7302F049FD06B080BD000011
:103A600080B5ADF51E7D9D909C919B929A93002010
:103A7000ADF86202ADF86002ADF85E02ADF85C022E
:103A8000ADF85A029C98FCF7B1FBADF85E024BF220
:103A9000B460C2F20000008838B1FFE74BF2B460B6
:103AA000C2F2000000698047FFE747F6E430C2F247
:103AB00001000078002800F0A781FFE74BF2B46016
:103AC000C2F200000088002800F06B81FFE74BF293
:103AD000B460C2F200000590C368BDF85A12481CD9
:103AE000ADF85A029D9A002098479C9899909C980E
:103AF000FCF77CFB0599ADF85E0248888979B0FB3C
:103B0000F1F0ADF85C02FFE79998411C999190F9AA
:103B1000000008B1FFE7F7E70020ADF86002FFE71B
:103B2000BDF8601200200129049009DCFFE7BDF90F
:103B30005E120020B1F1FF3FC8BF01200490FFE7F3
:103B40000498C007E0B1FFE79998013899909998D7
:103B500090F900002F2806D0FFE7999890F900000F
:103B60005C2806D1FFE7BDF860020130ADF86002C5
:103B7000FFE7FFE7BDF85E020138ADF85E02CFE770
:103B8000BDF95E0200280DD4FFE7999801309990A5
:103B9000999A48F21A41C0F600010DF5AD7003F094
:103BA00013FB18E0BDF8600250B9FFE7999A48F29C
:103BB0002341C0F600010DF5AD7003F005FB09E0EF
:103BC000999A48F21A41C0F600010DF5AD7003F064
:103BD000FBFAFFE7FFE70020ADF86202FFE7BDF860
:103BE000620203900DF5AD70FCF700FB01460398EF
:103BF000BDF95C22B1FBF2F1013188424FD2FFE7FF
:103C00000020ADF86002FFE7BDF86002BDF95C126C
:103C1000884227DAFFE70DF5AD70FCF7E7FABDF84B
:103C20006032BDF86212BDF95C2201FB02318842AC
:103C300001D2FFE716E0BDF86022BDF86202BDF9CF
:103C40005C1200FB01210DF5AD70405CBDF86022F7
:103C50000DF58D718854FFE7BDF860020130ADF8B5
:103C60006002D1E7BDF860120DF58D72002050544E
:103C70004BF2B461C2F20001CB68C979BDF85AC2F7
:103C80000CF1010EADF85AE201FB0CF189B2984734
:103C9000FFE7BDF862020130ADF862029FE79B9A30
:103CA00048F20441C0F600010DF5AD70029003F03A
:103CB0008BFA029A4BF2B460C2F20000C368C0797A
:103CC000BDF85A1201F1010CADF85AC2484381B255
:103CD000002098479A98002862D0FFE70020ADF8AE
:103CE0006202FFE7BDF8620201909A98FCF77EFA43
:103CF00001460198BDF95C22B1FBF2F10131884225
:103D00004DD2FFE70020ADF86002FFE7BDF860028A
:103D1000BDF95C12884225DAFFE79A98FCF766FA4B
:103D2000BDF86032BDF86212BDF95C2201FB0231C0
:103D3000884201D2FFE715E09A98BDF86032BDF8DD
:103D40006212BDF95C2201FB0231405CBDF86022C9
:103D50000DF58D718854FFE7BDF860020130ADF8B4
:103D60006002D3E7BDF860120DF58D72002050544B
:103D70004BF2B461C2F20001CB68C979BDF85AC2F6
:103D80000CF1010EADF85AE201FB0CF189B2984733
:103D9000FFE7BDF862020130ADF86202A2E7FFE77B
:103DA00031E00DF11A004FF48071FCF714FA4BF278
:103DB000B460C2F2000081689D9888479A9870B1FB
:103DC000FFE79C9A9B9B9A986946086048F2EB3102
:103DD000C0F600010DF11A0003F0F6F90AE09C9A12
:103DE0009B9B48F2D631C0F600010DF11A0003F09A
:103DF000EBF9FFE74BF2B460C2F2000081680DF10D
:103E00001A008847FFE7FFE70DF51E7D80BD000023
:103E100081B00090009800884BF2B461C2F20001BA
:103E200008800098408848800098808888800098A2
:103E3000807988710098C079C8710098806888601E
:103E40000098C068C86000980069086147F6E431CE
:103E5000C2F201010120087001B0704781B00090EA
:103E6000009900200880009A4FF6FF715180009A57
:103E70009180009AFF219171009AD1710099886018
:103E80000099C8600099086101B0704780B5AEB074
:103E900047F6CC21C0F6000103A8AC22FCF782F95A
:103EA00000200290FFE702982A2865D8FFE70299D0
:103EB00003A810F8211049098DF80710029950F84D
:103EC000210000F01F008DF80600002000909DF8F2
:103ED0000600072819DCFFE79DF807104BF2600089
:103EE000C2F2000050F82100006A009000989DF88E
:103EF00006108A000F2191400840009000989DF81C
:103F000006108900C84000901CE09DF807104BF295
:103F10006000C2F2000050F82100406A0090009852
:103F20009DF806206FF01F0101EB82030F229A40DB
:103F30001040009000989DF8062001EB8201C840D7
:103F40000090FFE70098029A03A951F8221001F4AB
:103F50007061B0EB112F0AD1FFE7029903A810F8A6
:103F6000210003210022102300F0A6FCFFE7FFE759
:103F700002980130029096E72EB080BD80B582B0E5
:103F800001900199002002F09BFC02B080BD00006E
:103F900082B08DF807009DF80700014600910728C0
:103FA0003BD80099DFE801F0040D151E27393930A0
:103FB00042F61441C4F20101086840F001000860B3
:103FC0002CE01421C4F20001086840F001000860F0
:103FD00024E040F21441C4F20001086840F00100FE
:103FE00008601BE040F61401C4F20001086840F0CC
:103FF0000100086012E040F61441C4F200010868B4
:1040000040F00100086009E043F21441C4F20101EC
:10401000086840F00100086000E0FFE702B0704768
:1040200080B582B08DF807000020ADF804009DF83F
:10403000070001460091072835D80099DFE801F014
:10404000040C131B2333332B42F62440C4F201002B
:104050000068ADF804002AE02420C4F200000068E3
:10406000ADF8040023E040F22440C4F200000068F0
:10407000ADF804001BE040F62400C4F20000006824
:10408000ADF8040013E040F62440C4F200000068DC
:10409000ADF804000BE043F22440C4F201000068D4
:1040A000ADF8040003E00020ADF80400FFE79DF840
:1040B00007104BF25800C2F20000405CFF2808D104
:1040C000FFE7BDF9040000EB90708008ADF8040034
:1040D00011E09DF807104BF25800C2F20000405C5E
:1040E00000F0D2FB30B9FFE7BDF804004042ADF864
:1040F0000400FFE7FFE7BDF9040002B080BD000047
:1041000080B588B08DF81F00ADF81C10ADF81A20EE
:104110000020019005909DF81F000421029102F0FB
:104120003FF948F23041C0F6000100917722FFF7D5
:1041300027FC0099BDF81C009DF81F2000EA023002
:10414000A0EB0230B0FA80F040097822FFF718FCAB
:104150000099BDF81A009DF81F2000EA0230A0EB7C
:104160000230B0FA80F040097922FFF709FC9DF88F
:104170001F0002F0B9F80199029BBDF81C20D0B2D3
:10418000C2F30322FFF740F90199029BBDF81A2000
:10419000D0B2C2F30322FFF737F99DF81F000146A2
:1041A0000391072828D80399DFE801F0040A0E14C8
:1041B0001A26262042F60040C4F2010004901EE0B8
:1041C0004FF0804004901AE040F20040C4F200003A
:1041D000049014E040F60000C4F2000004900EE0E9
:1041E00040F60040C4F20000049008E043F20040B2
:1041F000C4F20100049002E001200590FFE7059859
:1042000048BBFFE704994FF6FF70C862049900208D
:104210008862049880690590059840F00100059037
:10422000059840F480700590059804998861049978
:10423000886840F00300886004980068059005983D
:1042400040F002000590059840F0010005900598A7
:1042500004990860FFE708B080BD000080B584B015
:1042600003900398002818BF012048F20861C0F6A7
:1042700000015422FFF784FB00208DF80B00FFE7BC
:1042800003980078C00720B1FFE702208DF80B00EB
:1042900034E00399087840F0010008700399002089
:1042A00088600399C8600399486908610398407859
:1042B0000146019140B1FFE7019801280AD0FFE7CC
:1042C000019802280DD013E0039948684969FBF76B
:1042D00082FF0DE00399486849694900FBF77BFFBD
:1042E00006E00399486849698900FBF774FFFFE716
:1042F0000399087800F0FE000870FFE79DF80B00B6
:1043000004B080BD82B001900091009A0199C86804
:104310001044C860FFE70198C1684069884206D828
:10432000FFE70199C8684A69801AC860F3E702B0DC
:104330007047000082B001900091009A019988684E
:1043400010448860FFE7019881684069884206D878
:10435000FFE7019988684A69801A8860F3E702B02C
:104360007047000080B586B005908DF81310039259
:1043700002930598002818BF012048F20861C0F692
:10438000000140F21722FFF7FBFA00208DF807002A
:10439000FFE7039820B9FFE703208DF8070014E03A
:1043A0000398059948600599002008709DF813103E
:1043B000059A5170059988600599C8600298059919
:1043C0000861029805994861FFE79DF8070006B06B
:1043D00080BD000080B58AB00990089107928DF8E1
:1043E0001B300998002818BF012048F20861C0F668
:1043F0000001039140F26712FFF7C2FA0399079890
:10440000002818BF01204FF4B472FFF7B9FA00205A
:104410008DF81A00FFE7089820B9FFE703208DF810
:104420001A00C5E00999087840F00400087009985E
:1044300000F0C8F80490079800680499884207D9EA
:10444000FFE704980799086005208DF81A00FFE738
:104450000998C1684069401A059007980068059955
:10446000884231D8FFE7099840780146029140B16F
:10447000FFE7029801280ED0FFE70298022816D025
:1044800021E00898099A5168D2681144079A126885
:10449000FBF788FE17E00898099A5168D26801EB8B
:1044A0004201079A12685200FBF77CFE0BE0089865
:1044B000099A5168D26801EB8201079A126892004A
:1044C000FBF770FEFFE74FE0099840780146019145
:1044D00040B1FFE70198012817D0FFE701980228B3
:1044E0002AD040E00898099A5168D2681144059A88
:1044F000FBF758FE0898059B184409994968079AE4
:104500001268D21AFBF74EFE2DE00898099A5168FE
:10451000D26801EB4201059A5200FBF743FE08986E
:10452000059B00EB430009994968079A1268D21A63
:104530005200FBF737FE16E00898099A5168D268D6
:1045400001EB8201059A9200FBF72CFE0898059B6F
:1045500000EB830009994968079A1268D21A920001
:10456000FBF720FEFFE7FFE79DF81B00F8B9FFE728
:1045700009980078C00720B1FFE702208DF81A00E3
:1045800016E00999087840F0010008700998079929
:104590000968FFF7B7FE079802680999086910448F
:1045A00008610999087800F0FE000870FFE7FFE74E
:1045B0000999087800F0040008709DF81A000AB004
:1045C00080BD000080B582B001900198002818BF1E
:1045D000012048F20861C0F600017C22FFF7D0F903
:1045E000019801694069401A02B080BD80B588B069
:1045F0000790069105920798002818BF012048F2FD
:104600000861C0F60001BC22FFF7BAF900208DF85E
:1046100013000390FFE7069820B9FFE703208DF809
:104620001300DCE0079800788007002804D5FFE736
:1046300001208DF81300D2E00799087840F00200BD
:104640000870059807990969884200F2BE80FFE763
:10465000079881684069401A039005980399884239
:1046600073D9FFE7079840780146029140B1FFE710
:104670000298012822D0FFE70298022841D063E087
:1046800007994868896808440699039AFBF78AFDE8
:1046900007980399FFF74EFE079948688968084410
:1046A0000699039B1944059AD21AFBF77BFD0798DC
:1046B0000599039A891AFFF73DFE45E00799486876
:1046C000896800EB41000699039A5200FBF76AFDE6
:1046D00007980399FFF72EFE07994868896800EB51
:1046E00041000699039B01EB4301059AD21A52003F
:1046F000FBF758FD07980599039A891AFFF71AFEE8
:1047000022E007994868896800EB81000699039ABE
:104710009200FBF747FD07980399FFF70BFE0799F7
:104720004868896800EB81000699039B01EB8301CF
:10473000059AD21A9200FBF735FD07980599039A5E
:10474000891AFFF7F7FDFFE739E00798407801463F
:10475000019140B1FFE70198012811D0FFE70198CE
:1047600002281CD02AE007994868896808440699FD
:10477000059AFBF717FD07980599FFF7DBFD1DE08C
:1047800007994868896800EB41000699059A52002C
:10479000FBF708FD07980599FFF7CCFD0EE0079998
:1047A0004868896800EB81000699059A9200FBF73A
:1047B000F9FC07980599FFF7BDFDFFE7FFE7059AAC
:1047C00007990869801A086103E004208DF8130036
:1047D000FFE70799087800F0FD000870FFE79DF8F3
:1047E000130008B080BD000041F22000C4F20200B6
:1047F0000068C007A8B9FFE741F22001C4F2020136
:10480000086840F00100086041F20C01C4F20201A6
:10481000086840F001000860086820F001000860A6
:10482000FFE79421CAF20001C0200860A421CAF267
:104830000001012008605421CAF200012B20086009
:104840007047000082B001900091FFE70198009945
:10485000884215D0FFE701980099884205D9FFE703
:1048600001980099401A0190FFE701980099884249
:1048700005D2FFE700980199401A0090FFE7E5E7AD
:10488000019802B07047000081B08DF803009DF8D8
:104890000300C0F342114BF26000C2F2000050F876
:1048A000210080689DF8031001F01F01C84000F04E
:1048B000010001B07047000080B584B08DF80F0092
:1048C0008DF80E108DF80D208DF80C300020029020
:1048D0009DF80F0040098DF807009DF80F0000F0CB
:1048E0001F008DF806009DF80710012000FA01F264
:1048F00041F22801C4F202010868104308609DF8E3
:104900000E0060BBFFE79DF80C00092813D1FFE7FC
:104910009DF80F0000F01F02012101FA02F2C0F31E
:1049200042114BF26000C2F2000050F821100869F9
:104930001043086112E09DF80F0000F01F020121F2
:1049400001FA02F2C0F342114BF26000C2F2000021
:1049500050F82110486910434861FFE706E09DF8D0
:104960000F009DF80D1000F09BF8FFE79DF8060082
:10497000072845DCFFE79DF807004BF26001C2F213
:10498000000151F82000006A02909DF806008200A4
:104990000F2000FA02F3029A9A4302929DF8062031
:1049A000920000FA02F3029A1A430292029A9DF8C8
:1049B000073051F823301A629DF8072051F8222061
:1049C000126802929DF80620920000FA02F2029804
:1049D000904302909DF80E009DF80C2002F00C020E
:1049E00010439DF80620920000FA02F2029810434C
:1049F000029002989DF8072051F8221008604DE0BF
:104A00009DF807004BF26001C2F2000151F820004E
:104A1000406A02909DF806006FF01F0202EB8003CF
:104A20000F2000FA03FC029B23EA0C0302939DF87B
:104A3000063002EB830300FA03FC029B43EA0C03FB
:104A40000293029B9DF807C051F82CC0CCF824308B
:104A50009DF8073051F823305B6802939DF80630CB
:104A600002EB830300FA03F30298984302909DF847
:104A70000E009DF80C3003F00C0318439DF806302F
:104A800002EB830200FA02F20298104302900298AD
:104A90009DF8072051F822104860FFE704B080BD60
:104AA00081B08DF803008DF802109DF8020098B1D6
:104AB000FFE79DF8030000F01F02012101FA02F256
:104AC000C0F342114BF26000C2F2000050F8211016
:104AD00008691043086112E09DF8030000F01F020E
:104AE000012101FA02F2C0F342114BF26000C2F25E
:104AF000000050F82110486910434861FFE701B0F9
:104B00007047000080B588B042F24810C2F2010040
:104B10000078002800F08F80FFE7FFE702200DF10A
:104B2000130101F029FE50B1FFE742F23010C2F24A
:104B300001000DF113010122FFF758FDEEE79DF88A
:104B400013000A2876D1FFE70620059042F23010C4
:104B5000C2F201000DF11A01039105AA0123FFF72A
:104B600039FC0398033048F28851C0F60001032253
:104B7000FBF743FB10BBFFE742F22D10C2F201002E
:104B80000078022819D0FFE742F22D11C2F201018C
:104B90000120087042F23010C2F201000290FFF7CB
:104BA00011FD01460298059142F2AD01C2F20101E8
:104BB00005AA0023FFF70EFCFFE72EE00DF11A0017
:104BC000033048F28451C0F600010322FBF715FBC5
:104BD00010BBFFE742F2AC00C2F2010000780228ED
:104BE00019D0FFE742F2AC01C2F2010101200870C6
:104BF00042F23010C2F201000190FFF7E3FC0146DF
:104C00000198059142F22C01C2F2010105AA00238C
:104C1000FFF7E0FBFFE7FFE7FFE742F23010C2F2E9
:104C20000100FFF71BFB42F22E11C2F2010101202D
:104C30000870FFE7FFE708B080BD000080B582B0D4
:104C40008DF807009DF90700FEF71EFB02B080BD3E
:104C500080B582B08DF807009DF90700FEF730FBA4
:104C600002B080BD42F24C10C2F20100006810B9DF
:104C7000FFE772B6FFE742F24C10C2F20100016892
:104C8000013101600068704780B50420FEF752FBD7
:104C900080BD000080B582B08DF807008DF8061049
:104CA0009DF907009DF80610FEF722FB02B080BDBB
:104CB00080B582B042F25110C2F20100007850B9C2
:104CC000FFE74BF26000C2F20000C168486940F0A3
:104CD00080004861FFE74BF28600C2F200000088C6
:104CE000411E4BF28800C2F20000008801388AB2EF
:104CF00083B200210091084600F0F8FA0098ADF860
:104D00000600FFE7BDF806004BF28601C2F2000183
:104D10000988884223DAFFE70020ADF80400FFE7A6
:104D2000BDF804004BF28801C2F2000109888842F4
:104D30000EDAFFE74BF28000C2F20000008800F0BC
:104D4000FDFCFFE7BDF804000130ADF80400E7E723
:104D5000FFE7BDF806000130ADF80600D2E742F2E9
:104D60005110C2F20100007850B9FFE74BF2600029
:104D7000C2F20000C168086940F080000861FFE7E6
:104D800002B080BD80B586B001A8FFF767F80120AA
:104D9000ADF804004BF28600C2F200000088ADF8C6
:104DA00006004BF28800C2F200000088ADF808004F
:104DB0004BF28200C2F2000000780146009140B13F
:104DC000FFE7009801280BD0FFE7009802280ED0DB
:104DD0000EE006208DF80A0008208DF80B0007E091
:104DE00008208DF80A0010208DF80B0000E0FFE786
:104DF00045F25560C0F60000049044F6B140C0F69C
:104E00000000059001A8FFF703F806B080BD000080
:104E100080B5A2B08DF887009DF88700002844D1A6
:104E2000FFE742F25110C2F2010000211C91017013
:104E30004BF28B02C2F200021B926D2010704BF2FB
:104E40008A02C2F200021D926B2010706A464FF671
:104E5000FF709060506042F266501060022048F28D
:104E60000072C0F2933242F2645300F0ABFF1C9A1E
:104E7000652003211E9110232093FFF71DFD1B9831
:104E80001C9A1E99209B0078FFF716FD1E99209B07
:104E9000672001221F92FFF70FFD1D981E991F9A90
:104EA000209B0078FFF708FD6FE042F25111C2F23B
:104EB0000101012008704BF28B00C2F20000652155
:104EC00001704BF28A02C2F2000215926B2111703E
:104ED0000078032118910022169210231793FFF7F0
:104EE000EBFC1598169A179B18990078FFF7E4FCCD
:104EF000169A179B18996620FFF7DEFC1899672011
:104F00000C22199218231A93FEF77EFA1899199A0F
:104F10001A9B6D20FEF778FA1899199A1A9B64204B
:104F2000FEF772FA1899199A1A9B8B20FEF76CFA01
:104F30001899199A1A9B8C20FEF766FA1899199AF3
:104F40001A9B8D20FEF760FA1899199A1A9B8E20E9
:104F5000FEF75AFA1899199A1A9B8F20FEF754FAFD
:104F60001899199A1A9B6820FEF74EFA1899199AFF
:104F70001A9B6920FEF748FA1899199A1A9B6A2019
:104F8000FEF742FAFFF730FCFFE742F25010C2F2A0
:104F90000100007800F07CF94BF28400C2F20000BE
:104FA00000884BF28001C2F20001098800F05AF932
:104FB0004BF28A00C2F20000007800F01F010122CB
:104FC000129202FA01FCC0F342114BF26000C2F2ED
:104FD0000000139050F82130196941EA0C01196161
:104FE0004BF28B01C2F200011191097801F01F030D
:104FF0009A40C1F3421150F82110486910434861AA
:1050000044F24020C0F20F001490052101F02EF967
:10501000119A129B13991498127802F01F0C03FA3C
:105020000CF3C2F3421251F82220116919431161A5
:10503000782101F01BF942F25110C2F20100007810
:1050400050B9FFE74BF26000C2F20000C168486946
:1050500040F080004861FFE7112000F0CFFB44F2F0
:105060004020C0F20F00782101F000F9362000F056
:10507000C5FB42F25010C2F20100007820B9FFE7F0
:10508000002000F093FB1DE042F25010C2F201003C
:105090000078012804D1FFE7C02000F087FB10E072
:1050A00042F25010C2F201000078022804D1FFE75A
:1050B000702000F07BFB03E0A02000F077FBFFE70F
:1050C000FFE7FFE73A2000F099FB0520049000F08D
:1050D0006DFBB22000F092FB0C20039000F066FB09
:1050E000039800F063FB002000F060FB3320099080
:1050F00000F05CFB099800F059FBB72000F07EFB44
:10510000352000F053FBBB2000F078FB29201090E5
:1051100000F04CFBC22000F071FB012000F046FBC8
:10512000C32000F06BFB192000F040FBC42000F00E
:1051300065FB202000F03AFBC52000F05FFB1A2041
:1051400000F034FBC62000F059FB1F2000F02EFBBE
:10515000D020059000F052FBA42000F027FBA120F6
:1051600000F024FBE02000F049FB059800F01EFB56
:105170000820069000F01AFB0E20079000F016FBA6
:105180000920089000F012FB089800F00FFB04982B
:1051900000F00CFB31200E9000F008FB099800F0A5
:1051A00005FB48200A9000F001FB17200B9000F04F
:1051B000FDFA14200C9000F0F9FA15200D9000F083
:1051C000F5FA0E9800F0F2FA34200F9000F0EEFAA3
:1051D000E12000F013FB059800F0E8FA069800F0D3
:1051E000E5FA079800F0E2FA089800F0DFFA08986C
:1051F00000F0DCFA0D9800F0D9FA0E9800F0D6FA1B
:10520000099800F0D3FA0A9800F0D0FA0B9800F051
:10521000CDFA0C9800F0CAFA0D9800F0C7FA0E9873
:1052200000F0C4FA0F9800F0C1FA212000F0E6FA6D
:10523000109800F0E3FA42F25110C2F20100007837
:1052400050B9FFE74BF26000C2F20000C168086984
:1052500040F080000861FFE7FFF72AFDFFF792FDAD
:1052600022B080BD81B0ADF80200ADF80010BDF8ED
:1052700002004BF28401C2F200010880BDF8000078
:105280004BF28001C2F20001088001B070470000BB
:1052900081B08DF803009DF8030042F25011C2F274
:1052A000010108709DF8030001280EDCFFE74BF2B6
:1052B0008601C2F20001F02008804BF28801C2F2A0
:1052C00000014FF4A07008800DE04BF28601C2F29D
:1052D00000014FF4A07008804BF28801C2F2000177
:1052E000F0200880FFE701B07047000080B586B06D
:1052F000ADF81600ADF81410ADF81220ADF810306E
:10530000BDF816104BF28600C2F200000090028831
:10531000002002909142B8BF012048F28C51C0F6A3
:1053200000010391DF22FEF72BFB02980399BDF8E1
:1053300014204BF28803C2F2000301931B889A42A7
:10534000B8BF0120E022FEF71BFB009B02980399E7
:10535000BDF812201B889A42B8BF0120E122FEF757
:105360000FFB019B02980399BDF810201B889A42FD
:10537000B8BF0120E222FEF703FB2A2000F03EFA2C
:10538000BDF8160000F0DAF9BDF8120000F0D6F909
:105390002B2000F033FABDF8140000F0CFF9BDF86F
:1053A000100000F0CBF92C2000F028FA06B080BDE8
:1053B00080B586B0ADF81600ADF814108DF8132046
:1053C000BDF816104BF28600C2F2000002880020E1
:1053D00001909142B8BF012048F28C51C0F6000103
:1053E00002914FF4F172FEF7CBFA01980299BDF8E1
:1053F00014204BF28803C2F200031B889A42B8BF04
:10540000012040F2E312FEF7BBFA42F25110C2F261
:105410000100007850B9FFE74BF26000C2F20000D3
:10542000C168486940F080004861FFE74BF28200A4
:10543000C2F2000000780146009148B1FFE70098F1
:1054400001285FD0FFE70098022800F0EF80EEE02F
:1054500000208DF81200FFE79DF81200052850DCAF
:10546000FFE7BDF816009DF812104218BDF81410A1
:1054700001F1080092B283B21046FFF737FF9DF9A1
:10548000130000EB400147F6B530C0F6000000EB1A
:1054900041009DF81210084410F8C00C8DF810005F
:1054A00000208DF81100FFE79DF81100072821DC8E
:1054B000FFE79DF81000C00740B1FFE74BF2840002
:1054C000C2F20000008800F039F907E04BF28000DA
:1054D000C2F20000008800F031F9FFE79DF81000EB
:1054E00040088DF81000FFE79DF8110001308DF89D
:1054F0001100D9E7FFE79DF8120001308DF8120086
:10550000AAE794E000208DF81200FFE79DF8120052
:10551000072800F38A80FFE7BDF816009DF81210F7
:105520004218BDF8141001F10F0092B283B2104678
:10553000FFF7DCFE9DF9131047F6DD50C0F60000C2
:1055400000EB01119DF8122011444FF60062CFF6D6
:10555000FF72895C8DF80F109DF9131000EB01109C
:105560009DF8121008444FF60861CFF6FF71405CB9
:105570008DF80E0000208DF81100FFE79DF8110056
:10558000072821DCFFE79DF80F00C00740B1FFE7C7
:105590004BF28400C2F20000008800F0CFF807E070
:1055A0004BF28000C2F20000008800F0C7F8FFE76D
:1055B0009DF80F0040088DF80F00FFE79DF81100DF
:1055C00001308DF81100D9E700208DF81100FFE7B8
:1055D0009DF81100072821DCFFE79DF80E00C007A9
:1055E00040B1FFE74BF28400C2F20000008800F0F7
:1055F000A5F807E04BF28000C2F20000008800F03E
:105600009DF8FFE79DF80E0040088DF80E00FFE7BB
:105610009DF8110001308DF81100D9E7FFE79DF8E2
:10562000120001308DF8120070E700E0FFE742F24F
:105630005110C2F20100007850B9FFE74BF2600050
:10564000C2F20000C168086940F080000861FFE70D
:1056500006B080BD80B586B0ADF81600ADF8141068
:105660000492BDF816104BF28600C2F200000288C8
:10567000002002909142B8BF012048F28C51C0F640
:105680000001019140F23922FEF77AF9019902985E
:10569000BDF814204BF28803C2F200031B889A4223
:1056A000B8BF012040F23A22FEF76AF90298ADF83D
:1056B0000E00FFE70498BDF80E104056D8B3FFE780
:1056C0004BF28200C2F2000000780146009140B126
:1056D000FFE70098012819D0FFE70098022828D09A
:1056E00028E0BDF81600BDF80E3003EB430100EBD7
:1056F0004100BDF81410049AD25680B2FFF758FE4C
:10570000BDF80E000130ADF80E0013E0BDF8160034
:10571000BDF80E3000EBC300BDF81410049AD25649
:1057200080B2FFF745FEBDF80E000130ADF80E0067
:1057300000E0FFE7BEE706B080BD000080B582B0A4
:10574000ADF8060042F25110C2F20100007830B903
:10575000FFE7BDF80610022000F0E8FC23E04BF262
:105760006000C2F200000090C168486940F040004B
:1057700048619DF8070000F079F80098C268116947
:1057800041F040011161C168486940F04000486142
:105790009DF8060000F06AF80098C168086940F0BA
:1057A00040000861FFE702B080BD000080B582B014
:1057B0008DF8070042F25110C2F20100007830B9B2
:1057C000FFE79DF80710022000F00CFD14E04BF2FB
:1057D0006000C2F200000090C168486940F04000DB
:1057E00048619DF8070000F041F80098C168086919
:1057F00040F040000861FFE702B080BD80B582B094
:105800008DF8070042F25110C2F201000078B0B9E1
:10581000FFE74BF26000C2F200000090C1684869E7
:1058200040F0200048619DF80710022000F0DAFCEB
:105830000098C168086940F02000086114E04BF24C
:105840006000C2F20000C268516941F0400151613C
:105850009DF8071009024FF0C0421180C168086925
:1058600040F040000861FFE702B080BD81B08DF8D4
:1058700003009DF8030000020021C6F20801088021
:1058800001B0704780B584B00020039069460222C1
:105890000A6002900299029A029BFDF7B1F9019009
:1058A000FCF79CF8FBF7ACFD42F25210C2F201008B
:1058B0004BF24871C2F2000142F20002C2F2010250
:1058C00001F064F8FFE7FEE780B588B08DF81F00AF
:1058D00006919DF81F00012100F062FD48F2A441ED
:1058E000C0F6000101916622FEF74AF80199069878
:1058F000002818BF01206822FEF742F84BF29800FA
:10590000C2F20000006840F60161C0F227718842CF
:1059100004D3FFE7069840080690FFE70698C00BFF
:10592000ADF816000698BDF816100131B0FBF1F085
:10593000ADF814009DF81F0000F0D6FC9DF81F0084
:1059400001460091072834D80099DFE801F0040AE5
:105950000E141A20262C42F60040C4F201000490D6
:1059600027E04FF08040049023E040F20040C4F272
:10597000000004901DE040F60000C4F20000049016
:1059800017E040F60040C4F20000049011E041F23C
:105990000000C4F2000004900BE041F20040C4F2A9
:1059A0000000049005E043F20040C4F201000490BE
:1059B000FFE7BDF814000499C862BDF81600049909
:1059C00088620499C86840F00100C86043F2326000
:1059D000C2F63740039041F61940C1F61D600290AF
:1059E0009DF81F1002A84056FFF732F90499086885
:1059F00040F00100086008B080BD000080B58AB0AA
:105A00000990089107920998C0F30340032100F020
:105A1000C7FC48F21451C0F6000103916722FDF75C
:105A2000AFFF0399079A42F2117300209A4238BFE0
:105A300001206922FDF7A4FF4BF29800C2F200009A
:105A4000006840F60161C0F22771884219D3FFE770
:105A50004BF29800C2F2000001684908089AB1FBB5
:105A6000F2F1C90BADF81610006840080899B0FBB8
:105A7000F1F0BDF816100131B0FBF1F0ADF81400F3
:105A800016E04BF29800C2F200000168089AB1FBE0
:105A9000F2F1C90BADF8161000680899B0FBF1F0EF
:105AA000BDF816100131B0FBF1F0ADF81400FFE7BE
:105AB000BDF81400FAF761FE01900798FAF766FE48
:105AC00044F20001C4F21C61FAF730FC014601986F
:105AD000FAF7FAFBFAF784FEADF812000998C0F362
